:020000022000DC
:10600000E04F00208D9302000D05030079930200FC
:106010007993020079930200799302000000000056
:106020000000000000000000000000003D9402009D
:106030007993020000000000E993020079930200C6
:10604000CD950200CD950200CD950200CD950200C0
:10605000CD950200CD950200CD950200CD950200B0
:10606000CD950200CD950200CD950200CD950200A0
:10607000CD950200CD950200CD950200CD95020090
:10608000CD950200CD950200CD950200CD95020080
:10609000CD950200CD950200CD950200CD95020070
:1060A000CD950200CD950200CD950200CD95020060
:1060B000CD950200CD950200CD950200CD95020050
:1060C000CD950200CD950200CD950200CD95020040
:1060D000CD950200CD950200CD950200CD95020030
:1060E000CD950200CD950200CD950200CD95020020
:1060F000CD950200CD950200CD950200CD95020010
:1061000053B94AB9002908BF00281CBF4FF0FF311E
:106110004FF0FF3000F00CB8ADF1080C6DE904CE83
:1061200000F010F8DDF804E0DDE9022304B0704768
:10613000704700BF034613F8012B002AFBD1181A41
:10614000013870472DE9F04786468C460846089E80
:10615000154674461946002B40F0C2808542B2FABB
:1061600082F245D94AB1C2F1200300FA02FC2EFAAC
:1061700003F3954043EA0C0C94404FEA154EA8B245
:10618000BCFBFEF8230C0EFB18CC08FB00F943EA1D
:106190000C43994528D9EB1808F1FF3704D29945EB
:1061A00002D9A8F102072B44A3EB0903A4B2B3FB65
:1061B000FEFC0EFB1C330CFB00F044EA0344A0423F
:1061C00014D92C190CF1FF3304D2A04202D9ACF13E
:1061D00002032C44241A43EA07401EB1D440002392
:1061E00034607360BDE8F0874746DDE76346F1E75A
:1061F00092BB431B01214FEA154EAFB2B3FBFEFC2D
:10620000200C0EFB1C330CFB07F840EA03439845B7
:1062100062D9EB180CF1FF3004D2984502D9ACF1E9
:1062200002002B44A3EB0803A4B2B3FBFEFC0EFB5D
:106230001C330CFB07F744EA0344A7424ED92C1940
:106240000CF1FF3304D2A74202D9ACF102032C4473
:10625000E41B43EA0040C0E7C2F1200320FA03F147
:10626000954090402EFA03F303434FEA154EAFB228
:10627000B1FBFEFC0EFB1C10190C0CFB07F841EAED
:106280000041884504FA02F422D969180CF1FF3064
:1062900004D2884502D9ACF102002944A1EB0801DF
:1062A0009BB2B1FBFEFC0EFB1C110CFB07F743EA93
:1062B00001439F420ED9EB180CF1FF3104D29F42EB
:1062C00002D9ACF102012B44DB1B41EA004192E709
:1062D0006046E3E76146F7E76046A3E76346B7E752
:1062E000834206D916B9002108467BE7C6E900E0DB
:1062F000F9E7B3FA83F78FB9834201D3724508D81F
:10630000BEEB020460EB030301209C461EB9002192
:1063100068E73846FAE7C6E9004CF8E7C7F1200C11
:10632000BB4022FA0CF41C432EFA0CF120FA0CF3B9
:10633000B84001434FEA14490EFA07F5B3FBF9F8E8
:106340001FFA84FE09FB18300B0C08FB0EFA43EA17
:1063500000439A4502FA07F240D9E31808F1FF30EA
:1063600004D29A4502D9A8F102002344A3EB0A0300
:1063700089B2B3FBF9F809FB183308FB0EFE41EABA
:1063800003418E452CD9611808F1FF3304D28E45A4
:1063900002D9A8F10203214443EA0040A0FB02987D
:1063A000A1EB0E014145CE46434602D306D14D45F1
:1063B00004D2B9EB020E68EB04030138002EA6D01C
:1063C000B5EB0E0261EB030101FA0CFC22FA07F3B4
:1063D0004CEA0303F940C6E9003198E74046C5E7B7
:1063E0004346D9E710B588B00DF1070202920122A9
:1063F000002303920222CDE905018DF807308DF8C4
:1064000010308DF81C2006489DF81C30816813431D
:106410008DF81C308C683C2302A9A04708B010BD41
:10642000581603002DE9F04F91B000AF0024154637
:10643000F8601C22894607F124002146BB603C62BB
:106440000BF025F808F023FF2A4678608B4607F109
:10645000210049460BF00DF8DFF894A06B1C1426C0
:10646000A0463B60BB68002B3DD007F120037B6159
:106470003B68BB6102233B773B7FDAF808201C486E
:1064800043F002033B77936807F114019C46012215
:106490003C23E04720B1B8F1000F08BF804601342B
:1064A000013EDFD108F0F3FE8EB06A46114B536116
:1064B000FB68C2E906357B68C01A4FF40073138687
:1064C00061EB0B010C4BC2E90848C2E90A0142F832
:1064D000103F0A48334644F2C04101F0C3F8443744
:1064E000BD46BDE8F08F29464846FFF77BFFD1E760
:1064F000581603006C1B0300080000011419030068
:106500002DE9F04F89B0002002AF01F017FF7A4D5E
:106510000023BB606424BB6863B9AB689B6C23B188
:1065200007F10802042128469847642008F0BDFEC0
:10653000013CF0D1714A7248032109F0C1FD714854
:10654000714D026981681368DFF8C081704E23F4D1
:10655000005313600B684FF420220D219847C82088
:1065600008F0A3FE6B480121FFF73CFF002455F81B
:10657000042B0023414630460134FFF753FF092C1A
:10658000F5D165496548644EDFF8948100230822FF
:10659000FFF748FF6049634801230822FFF742FFE5
:1065A0005D49614800230222FFF73CFF5F496048D4
:1065B00000230322FFF736FF5E495F4800230322D2
:1065C000FFF730FF54495D4800230522FFF72AFFFB
:1065D00056495B4800230622FFF724FF082433783E
:1065E00035464246102107F1080008F0C7FB00239A
:1065F0000122294607F10800FFF714FF013C06F1CC
:106600000106ECD14F4D284607F0A4F906464E4A44
:10661000034603213A4809F05CFD002E66D1AB68C1
:106620005B680BB1284698470024A046A146474E18
:106630004FF0000A08F02BFE454B78604FF40072D3
:10664000C7E90223307996F805C0424A80233B61AE
:106650008B46002313F0010F03F1010314BF6146C1
:106660000146B3F5007F02F8011BF3D1AB68394A4C
:1066700000929B68334800229C46114607F10803AC
:10668000E047386008F003FE7B68C01A3B6861EBA6
:106690000B0143B308F10108EB4690B056F808CB64
:1066A00002AADFF8B4E0C2E907C340F2013313875E
:1066B0002A4BC2E905E4C2E90A01C2E90C9842F892
:1066C000103F0F48002345F2C04100F0CBFF4FF4CC
:1066D0007A70DD460AF1010A08F0E7FDBAF1040F0D
:1066E000A8D10134A3E709F10109D5E720461C37F9
:1066F000BD46BDE8F08F00BF44160300971B0300A2
:10670000141903003016030068190300481C030025
:10671000A71B0300581C0300401C0300B11B03000F
:10672000FB1B0300C01B0300D41B0300421C03001F
:10673000E01B0300451C0300F21B0300DA1B0300EF
:10674000E91B03006C160300051C03008C190300F1
:106750008000200078350020161C03000A0000018C
:106760002DE9F04F91B08407009302F004030293E7
:10677000C2F3C20303F10103DDF86880039205460A
:106780000E46059340F0BA81041D30B1072909D89F
:106790006FF01B0011B0BDE8F08F01F00706344424
:1067A000C6F10806009B4FF00009591E4FF0040A7D
:1067B0004FF0FF330193CDF810904F46CB46534630
:1067C0000DB1009A22600598002800F3E8809848EF
:1067D000009A824203D397488242C0F0E080039A35
:1067E000A4EB050E92074FEA9E0000F103810F2FE4
:1067F00000F2B180002D00F0058107F140020DEBA1
:10680000020C019A0CF8200C0CF8102C04980130A2
:106810000490E7E07A285DD84B280ED8472859D84D
:1068200029282DD8252852D054D820287AD023388A
:10683000D0F1000B4BEB000B74E04C382E2849D8FC
:10684000DFE800F070484848484848484848484809
:106850004B484848484848484859484B4B5959596B
:10686000704B6D487048184B184848827F4B484819
:106870004B487F0000204FF0000B4FF0040A38E037
:106880002A38C0B2012202FA00F010EA0E0F49D1F4
:1068900010F0625C2FD110EA020B43D06046013C3D
:1068A0005444B4FBFAF40AFB04F4002D61D0A3EBCA
:1068B000050CA444B4453FF66BAF002868D1042B07
:1068C00047D158F8043B2360043404232AE0019A9A
:1068D000013A01924FF0000B24E011F8010C6C28F2
:1068E00034D111F8023C00206C2B8346C5D14FF007
:1068F000080A5346D3E708F1070828F007080734C9
:10690000F8E802AB24F0070435B106982044B04201
:106910003FF63EAFC4E900AB08344FF0000B4FF038
:10692000080A534611F8010F002878D0BBF1000F78
:106930007FF470AF2528F5D1019B013301934FF00F
:10694000010B4FF0040AECE7584694E70020834619
:10695000A5E7082B02D06FF015001BE708F1070828
:1069600028F00708F8E80223C4E9002308340823C4
:10697000D8E768B9042B02D108F10408A4E7082B72
:10698000E9D108F1070828F0070808F10808EDE741
:10699000059A013A059258F8042B009210E7039AE1
:1069A000900720D5A4EB050E4FEA9E004FF0010C96
:1069B000BEF5007FCFD20F2FCDD8F5B107F1400241
:1069C0000DEB020EC0B2019A0EF8200C0EF8102C3E
:1069D000BCF1000F3FF41AAF60F07F000EF8200CFE
:1069E00009F101090137C5F10802043406924FF696
:1069F000DA7E97E74FF0000CDAE7BCF1000F01D028
:106A00000136EFE7029802360028EBD10098CDE975
:106A10000631FFF78FFBDDE906310644E2E7631B31
:106A2000B3F5806F97D23DB9A6F10804E018B1E63E
:106A300088150300A4260300029A28609B082B7087
:106A40009DF81030C2B1EB7085F80290B9F1000FDB
:106A500005D008A80022C5F1010C97420ED1C5F15E
:106A600001030DF120084FF0000A01930DF1300BE6
:106A7000574512D1601B8DE66B70E5E710F8013BBE
:106A8000190608D50CEB040EB64503F07F033FF65C
:106A90007FAE04F8013B0132DFE7B9F1000F03D00C
:106AA00098F90020002A17DB029BD3B11AF80B20BB
:106AB00004F8012B0022019B18191044B0423FF644
:106AC00067AE98F8000004F8010B00990392204685
:106AD0000AF0CFFC039A14440AF1010A08F10108F4
:106AE000C6E798F8002055F822300093029B45F83D
:106AF00022300098FFF71EFB421CDCE76FF00D0010
:106B000048E600BF2DE9F04F97B000AF90F802A023
:106B1000D7F880B03B62CBF3C0030446FA62BB6196
:106B2000894641B9457800780AEB800020444D45FC
:106B300017D8A0EB0409E378FB61BAF1000F02D08B
:106B40001BF0010F16D1FB6953BBFB6A1BB13A6AFC
:106B50004946204698474D4628465C37BD46BDE825
:106B6000F08F461C3046FFF7E5FA0130304409F15A
:106B70000109DCE7237862687A62FA6A9900796130
:106B800004EB8301002A40F000814D460E4601EBE4
:106B90000A094FF000084E454CD101EB0A0610E0FF
:106BA0001BF0020FD1D023789A007A6162687A6272
:106BB000FA6A04EB8301002A77D14D4601EB0A06FD
:106BC00090461BF0050F0CBF02230123FB62FB69FB
:106BD00006EB430A0BF00203BB625645BCD016F825
:106BE000021B16F8013C54F82390994B994502D3A7
:106BF000984B994536D3BB69002B40D0786A08F092
:106C000060FD00283BD0E9468AB06A46924B53614A
:106C10007B6AC2E906314FF4007313848F4B42F84C
:106C2000103F8F4800234FF4125100F01BFD023D2E
:106C3000CD46D2E716F8013BF96254F82300FFF77E
:106C400079FAD7F88430F96A01304BB1D7F8883037
:106C500098453EBFD7F8843023F8180008F10108A2
:106C6000054498E7BB6923B1786A08F02AFD00283B
:106C7000C9D11BF0010F05D1FB6AED1AADE7BB6A64
:106C8000002BAAD04846FFF755FAD7F8843053B105
:106C9000D7F8883098453FBFD7F88420431C22F8A6
:106CA000183008F10108054497E7BAF1000F72D0D7
:106CB0001BF0040672D0D046002607F14800524669
:106CC0003B61B9620AF0D5FBB96A3B6901EB0A0284
:106CD000BA62FA69F9695200FA60BA6A02EB4102D3
:106CE0003A610BF00202BA603A69B96A8A4257D136
:106CF00062787A621BF0020F32440CBF4FEA5801EF
:106D000000211BF0010FD2B240F09F801BF0040F56
:106D100014BF40460020BB616270A070E1703A6A07
:106D20007969FB6A20469847051EFFF615AFBB69D7
:106D300023707B6A6370FB69E37041463A6AFB6AC1
:106D400084F802A007F148009847B0F10008C0F2AB
:106D5000BB807B693A6AA9EB0A01C91AFB68C91AA8
:106D6000D7E90A0398470028C0F2B080A84408EB8E
:106D700000054FF0000B07F1380AB34572D300212C
:106D80003A6AFB6A08469847E6E656464FF000081E
:106D900007F1380093E75646D04697E7B04695E7A7
:106DA000BA6A12F8021BBA6212F8015C284A54F857
:106DB0002500904202D3274A90421ED3BA6932B1CD
:106DC000786A7B6008F07DFC7B6800288CD1BA680B
:106DD00002BB08F1280207F1300C08F101009444CD
:106DE00007F1580252FA80F008F102080CF8101C62
:106DF0005FFA88F800F8105C76E7BA693AB1786A09
:106E00007B6008F05EFC7B6800287FF46DAF1BF0B0
:106E1000010F09D006F1280207F13000711C161885
:106E200006F8205CCEB25FE71BF0040F3FF45CAFC6
:106E300008F1280207F1300008F1010102EB000817
:106E400008F8105C5FFA81F84EE7002063E700BFA6
:106E500088150300A42603007F1C03000400000122
:106E6000CC1803001BF80A3087F8373054F8239009
:106E7000D7F884302BB3D7F888309B4521D2D7F888
:106E8000843033F81B803A6AFB6A012107F137002E
:106E9000984700281ADB0544B8F1000F06D1484690
:106EA000FFF748F900F101081FFA88F83A6AFB6A0F
:106EB000414648469847002808DB05440BF1010B82
:106EC0005BE74FF00008DEE7454645E6054643E64A
:106ED000014B1860704700BFB000002080B5054628
:106EE0000E461746984607F0DDFB03460AF042FBC4
:106EF000DFF81890044649F80030424630463946DB
:106F0000A84754F8090002F059FA00BF0800000031
:106F10002DE9F047058B04462807904611D4022935
:106F200005F0070540F0CC80204608F083FE78B1DC
:106F30000138218B042811D8DFE800F0C2106D85DC
:106F4000950001290CBF45F0100545F0200525836B
:106F500088F31188BFF36F8FBDE8F08701F0070A4F
:106F6000AA4500F0A5800027B9463E46A368002B3D
:106F700000F0BC8041F00801218388F31188BFF341
:106F80006F8FA168002900F0BA800D68002900F019
:106F9000B680D1F80480334652462046C047002DC3
:106FA00076D02B6829461D46F0E701F007035A1FEB
:106FB000012A1BD8002221F00701062B276889B27D
:106FC000C4E9002209D13B4603E0628B01326283AF
:106FD0001B68002BF9D141F002012183204608F003
:106FE00029FE00287AD041F0200176E0042B0AD156
:106FF00021F0070189B22183204608F01BFE10B161
:1070000041F020012183218B01F0070AAA454FD0CE
:107010000027B946AAE7236921F0070141F00601DC
:10702000062DD3F8009021832DD1B9F1000F3FD068
:1070300041F00801218388F31188BFF36F8F3A492B
:107040002046C84729E021F00701236941F00401E7
:1070500089B2042DD3F804902183E6D000273E4660
:107060004FF0040A82E721F00701236941F005018E
:1070700089B2052DD3F808902183D6D000273E464B
:107080004FF0050A72E700273E464FF0060A6DE70B
:107090002B4687E7B9F1000FD1D1EFF311882023F8
:1070A00083F31288BFF36F8F238B23F008032383AE
:1070B000258BEA062ED525F01003238305F007055E
:1070C0006669218B002EBFF670AF00232768C4E9E4
:1070D000003321F0070141F001012183218B01F0F0
:1070E000070AAA454FF000097FF440AF002F9CD05B
:1070F00041F00801218388F31188BFF36F8F002FBF
:10710000C8D03D68394633465246204608F0BEFD99
:107110002F46F4E7AB067FF51BAF25F02003238352
:1071200005F0070500E700BFB9FC02002DE9F047B4
:10713000DFF85880044607464FF0010914B9384675
:10714000BDE8F08794FAA4F5B5FA85F509FA05F3D8
:107150002E0108EB05156FEA030A24EA03042B7BD2
:10716000002BEBD058F806301B694BB9464404227B
:1071700073682846196807EA0A0708F032FFDDE756
:10718000284698470028D9D1F0E700BF34190300FA
:1071900030B51049104889B000220AF0D6F80F4DDA
:1071A0000F4900220023CDE9062300240E23CDE958
:1071B0000334CDE901440B4B00944FF44072284650
:1071C00006F0B4FF0849284609F04DFF204609B0F3
:1071D00030BD00BFED710200D82300205003002015
:1071E000A037002009750200331D0300014806F096
:1071F0009DBD00BF640200202DE9F84F8046244861
:107200000F4608F0CEFE0646002839D00025284655
:10721000BDE8F88FA4EB0B0362681B1101331371F7
:10722000237B83B12368DB680BB1204698476368F2
:1072300083F8069023681B69D3B963680422196830
:10724000204608F0CEFE013610345445E2D3B8F1A2
:10725000000FDCD0002DD9D02846FFF767FF054688
:10726000002FF7D000214FF4A47009F0AEFFF1E732
:10727000204698470028E0D009FA06F31D43E2E7CC
:10728000044CDFF814A00546A3464FF00109DCE7E3
:10729000C02700203419030044190300014B53F8A0
:1072A00020007047C019030008B5034608462BB1FB
:1072B000044A136000F06CFC002008BD6FF015005C
:1072C000FBE700BFB400002010B5044C237813B9CD
:1072D000034806F02BFD0123237010BD78370020F2
:1072E0006402002010B504460B4808F05AFE5CB159
:1072F000BFF35B8F094B53E8001F013943E80012CD
:10730000002AF8D1BFF35B8F05480AF02AF8054838
:10731000BDE8104006F00ABDB8270020BC270020B9
:10732000D8230020640200200020064BBFF35B8FAF
:10733000014653E8000F43E80012002AF9D1BFF3D9
:107340005B8F7047B827002070B5FFF7EDFF084C42
:10735000084E0546B44200D370BD63685B792BB11B
:1073600023685B6813B12946204698471034F1E73B
:10737000341903004419030010B5044C0449204695
:1073800008F0D6FA034B1C6010BD00BFE8010020D6
:10739000AC190300B0270020084A094808B50023AB
:1073A0001370084A1360084A4FF400411360FFF756
:1073B0007BFFBDE80840FFF7DFBF00BF7937002043
:1073C0009FFF0200B8270020BC27002001460022B2
:1073D0000148002308F0CDBAE8010020014808F078
:1073E00066BB00BFE8010020024B0146186808F0A8
:1073F000B2BB00BFB0270020014808F0E7BB00BFC8
:10740000E801002070B5294B187800284DD0FFF70F
:10741000E5FF0546002845D1254B264C1B68002B6F
:1074200019DD09F04BFF4FF47A72A0FB020302FB57
:107430000131C30BD4E9002043EA41439B1A4FEAD0
:10744000D13140F2E93261EB0001934271F1000168
:1074500001D3FFF779FFD4E9003213F57A7342F1D3
:107460000002C4E90032BDE87040FFF7C5BF6368A1
:107470005B7923B1236829461B682046984710345E
:10748000B442F4D32846FFF7AFFFBFF35B8F0A4B3C
:1074900053E8001F013943E80012002AF8D1BFF376
:1074A0005B8FB9E7054C064EEAE770BD78370020E0
:1074B000B8270020D0230020BC2700203419030067
:1074C0004419030070B50D4D297861B90120FFF70B
:1074D00093FE0B4C0B4EB44206D3FFF793FF0028EC
:1074E000FBD101232B7070BD63685B791BB12368EE
:1074F00020469B6898471034EDE700BF793700209D
:10750000341903004419030000212DE9F04708460F
:10751000FFF772FE044658B340F267684FF0000967
:107520000AF028F81B4B1C4A1B58136033B11B4B45
:107530001B68092B02DD1A4806F0F8FB194FDFF82B
:1075400060A0002544B12046FFF7F0FD044618B9BD
:107550004FF0FF384FF0FF39FFF754FF064628B9C8
:10756000B5B942464B46504606F014FC3546E9E7AD
:107570004FF0FF384FF0FF39D2E72B689B691BB102
:1075800000221146284698471035BD42F5D3E8E75A
:10759000054DFAE708000000B4270020BC270020B2
:1075A00064020020441903003419030013B518487D
:1075B00008F0F7FC174B1B7873B1EFF3118420230D
:1075C00083F31288BFF36F8FFFF71CFF84F31188DA
:1075D000BFF36F8F02B010BD0F4B1B68002BF9D0AB
:1075E00050B900220023CDE900230C484FF400429B
:1075F000002307F037FBEDE70928EBD1074809F036
:10760000B0FE074802B0BDE8104006F08FBB00BFD7
:10761000BC27002079370020B4270020D823002081
:107620006402002010B5064B1B68044698472146AB
:10763000A060044808F01CFABDE81040FFF7B6BF90
:10764000B4000020E8010020044A054B9B1AB1EB6E
:10765000D30F34BF52F8310000207047CC1803001C
:10766000341903002DE9F04F8FB004AFC1F34A285D
:10767000B8600D4691467B600C0DB8F1000F63D0E9
:10768000002607F114034FF0040B4FF00A0AC7F865
:107690000C80C7E907667E620193CDF808B0CDF88B
:1076A00000A007F11C03F96832464846FFF72AFAA2
:1076B000B0F5006F03461CD36C468AB0D9F80410AD
:1076C00004AB2648C3E9050140F2FF71D9611A46AF
:1076D0004FF400711984224B42F8103F2148334681
:1076E0004FF41251FFF7BEFFA5462C37BD46BDE84B
:1076F000F08FC0F30A0804F11700184420F00700C7
:1077000080083B60FFF762FE68F35325044690B1A2
:107710003B68154AC7E9083600F1100107F1140368
:10772000F961CDE900A3CDF808B0F96807F11C03B1
:107730004846FFF7E7F968F353257B68B9682A469E
:10774000204608F06DFCD0E704F1170020F0070098
:107750008008FFF73BFE0446EDE700BF481D03002D
:1077600004000001EC180300F5FF02002DE9F04FC2
:1077700087B0DDE91279DDE9105A0446039193469A
:107780009846BFB1CDF800903B46524610210020EC
:10779000CDF81490FEF7E4FFB0F5006F06460AD36B
:1077A000184A194840F2FF73022107B0BDE8F04FB4
:1077B00008F08FBC3E4605F11700304420F007006A
:1077C00004F007048008FFF701FE0BF0070BE4004C
:1077D00044EA8B1444EA462444EA0554054640B181
:1077E0003FB1CDF800903B46524631461030FEF78F
:1077F000B7FF039943462246284607B0BDE8F04F3D
:1078000008F00EBC871D0300EC180300406820B18F
:10781000034BC01A40F3CF0070474FF0FF30704762
:10782000CC1803000EB403B503AB014653F8042B88
:107830000448019302F024F802B05DF804EB03B0B1
:10784000704700BF1D010300CA0605D48B064CBF5C
:1078500002490349FFF7E6BF704700BFC01D0300A0
:10786000BF1D03002DE9F04F89B09B46149B069382
:107870009DF84CA0159B0593169B179E04930446F8
:107880000D469046BAF1000F00F09D8006F480731B
:10789000079308F0A4FB06F00209024600283ED038
:1078A00091492046FFF7BEFF0746B9F1000F08D007
:1078B00016F0440F35D18D492A462046FFF7B2FF16
:1078C000074406F0010353B1894B8A4953F82A2033
:1078D000894B2046002A08BF1A46FFF7A3FF06F48B
:1078E0008073002B49D006F00803002B63D1B8F158
:1078F000000F66D0814942462046FFF793FF0546B8
:10790000069B3D44002B6DD1049B002B73D1F307E4
:1079100000F1E48031462046FFF796FFD8E00746A5
:10792000C3E7774B18680028CAD0764B4FF47A79B2
:107930001B68B5FBF3F54FF46163B5FBF0F100FB99
:10794000115509FB05F54FF03C0CB1FBF3F203FBBD
:107950001211B5FBF0FEB1FBFCF300FB1E550CFB56
:10796000131109FB05F50091B5FBF0F56649CDE96A
:1079700001E52046FFF756FFA2E706F00803EBB14A
:10798000624B634953F82A202046FFF74BFF054618
:10799000B8F1000F05D0594942462046FFF742FF93
:1079A0000544BBF1000FABD05A495A462046FFF7B9
:1079B00039FF0544A4E74FF0000BE1E706F00805A6
:1079C000E6E745469CE7BBF1010F069B06D1002B7D
:1079D00064D1049B002B7BD000250CE0002BF8D059
:1079E0004D485CE04D48069B4D49224607F038FE65
:1079F000049B002B68D0DFF82C81DFF82C91049FCA
:107A00003146102F204628BF1027FFF71DFF4FF0EB
:107A1000000B5D4545DC059B49461A782046FFF77B
:107A200001FF4FF0010B1BF0070F03D14146204629
:107A3000FFF7F8FE5F453BD9059B494613F80B203D
:107A40002046FFF7EFFE0BF1010BBBF1100FEAD15F
:107A5000364920464FF0000BFFF7E4FE5A46059BDF
:107A60009A5CA2F120015F2928BF2E2230492046CE
:107A7000FFF7D8FE0BF1010BBBF1100F1DD01BF06F
:107A8000070F03D141462046FFF7CCFE5F455A461B
:107A9000E5D841462046FFF7C5FEEBE71F485546AF
:107AA000A1E741462046FFF7BDFE0BF1010BB0E711
:107AB00020492046FFF7B6FEC5E7059B3B440593EA
:107AC000049BDB1B04939AD1BAF1000F7FF41FAF24
:107AD000204609B0BDE8F04F08F013BB064A05493F
:107AE0002046FFF79FFE15E7C71D0300CB1D0300CF
:107AF000D01903001F250300C21D0300F01D030061
:107B0000C8270020C4270020D41D0300E419030067
:107B1000F41D0300FA1D0300530103001D010300BF
:107B200081980200071E0300FF1D0300091E0300C9
:107B30000B1E0300051E030073B542F20F738B4248
:107B400028BF0B4605680F4A04460521684607F022
:107B500015F963680C495B6806460B22284608F055
:107B6000C2FA63683246694628465B6808F0BBFA89
:107B7000636806495B681B22284608F0B4FA02B025
:107B800070BD00BF431F03002A1E03000E1E03002A
:107B9000074A00210123904206D8064A01B9012371
:107BA0001360054B1860704740085B000121F2E745
:107BB00040420F00C4270020C8270020F8B5074F17
:107BC0000D4604464618B44201D12846F8BD14F8C3
:107BD000011BBB6801485B689847F4E74416030043
:107BE000014B0360002070472C1A0300F0B40C4BCB
:107BF0000C4E5F6A0C4BB34203D36FF08500F0BCB0
:107C000070475D68BD4209D31C693CB195F802C05C
:107C10000579AC4502D12346F0BC18472433EAE786
:107C2000F0270020500300202C0300202DE9F0470E
:107C3000134CDFF85080DFF8509005460E4617468B
:107C4000444503D36FF08500BDE8F0876268D9F83A
:107C500024309A4212D3A36983B19078297988425B
:107C600005D13A4631462846BDE8F04718475279D3
:107C7000012A03D13A463146284698472434DFE7A3
:107C80002C03002050030020F02700202DE9F041B4
:107C90000B4CDFF8308005460E461746444502D3AC
:107CA0006FF0850009E063690BB92434F6E73A46C2
:107CB0003146284698470028F7D1BDE8F08100BF3B
:107CC0002C0300205003002010B5044608F097FC58
:107CD00010F1780F00D050B9054A204608F0B5FAE7
:107CE000D2F8C43023EA0003C2F8C430002010BD2B
:107CF000F0270020024B00221A605A60704700BF34
:107D0000AB28002070B50B4B0B4CA34201D30020D5
:107D100070BD196A1E7F00220439D5B2AE4201D867
:107D20002433F2E7013211F832508542F5D10120B7
:107D3000EEE700BF2C0300205003002008B50948DF
:107D40000378C3F341130A3350F823303BB100F1F9
:107D5000080200F110019847C043C00F08BD184643
:107D6000FCE700BFF027002004282DE9F14FDFF8E1
:107D7000989004460F4616D001282DD1DFF88C804C
:107D800098F8B93043B300F0FFFD214D4D4520D2A6
:107D9000D5F820B04FF0000A2B7F5FFA8AF6B34285
:107DA00004D82435F2E7FFF7A5FFE7E70BEBC6069B
:107DB0000AF1010A307908F022FC0246307908F015
:107DC00044FAD8F8C430002A23EA0003C8F8C430C3
:107DD000E2DA002388F8B9300D4D4D4508D30B4B3E
:107DE0001B6A6BB13946204601B0BDE8F04F184719
:107DF000EB681BB13A462146284698472435ECE704
:107E000001B0BDE8F08F00BF50030020F027002034
:107E10002C03002073B5C4B263060D468DF80740ED
:107E200007D02046FFF76EFF78B10D4B93F8BA00EC
:107E300058B10B4E204655B102F050F9F3691BB111
:107E40000DF1070108209847012002B070BD02F033
:107E50006DF9F369002BF7D00DF107010920F2E766
:107E6000F027002073B586788DF800600379427999
:107E70001C4C43EA0223ADF80230C378304603F0CD
:107E800003038DF8043008F0E0F9D4F8C430184248
:107E900005460BD0304600F059FD3046FFF714FF81
:107EA00009F0DBF810B9962006F0BAFB684602F03C
:107EB000F1F810F1780F03D010B1002002B070BDBE
:107EC0009DF8000002F06EF910F1780F01D0002843
:107ED000F3D1D4F8C43001202B4384F8B900C4F89E
:107EE000C430EBE7F02700202DE9F047A34EB3693B
:107EF00004460F461546FBB9237803F01F03012BF8
:107F000000F09D80022B00F0048133BB94F9000047
:107F10002A686178002834DA062912D008292BD083
:107F2000D9B901231370517096F8C3305B0043F048
:107F30000103137002232AE198470028DCD10020B6
:107F40000DE06288100A011F0129844605D907281F
:107F500003D8716AD2B20C781CB96FF01500BDE875
:107F6000F0874E78664503D19A4200F00B810133C9
:107F70002144F0E70B780AE196F8BA301370012338
:107F800005E101390829E8D801A353F821F000BF21
:107F9000298002005B7F0200378002005B7F0200C5
:107FA000B57F02005B7F02005B7F02005B7F020007
:107FB000C17F0200A07802F05BF80028BFD0CCE7B8
:107FC0006388756A63BBFFF795FE638886F8BA30ED
:107FD000F369002BB3D06A4903209847AFE76B7869
:107FE000042B10D0052B11D0022B04D16F7963889C
:107FF000BB4208BF01202B781D442B78002BEED10B
:108000000028AAD0DFE795F80380F4E76388BB4235
:10801000F1D1B8F1000FEED12846FFF723FFEAE7D0
:10802000FF270020B846E8E76388012B95D100239D
:1080300086F8C33083E76388012B8ED1F8E796F882
:10804000BA30D5F800C0002B87D0756AA38894F8A1
:1080500004E02A46107800283FF47FAF51780229C7
:1080600004D192F80480F04500F293800244F1E7D5
:108070008CF800208CF80120396060E7154494E00A
:108080000B2A7FF46AAF00274FF0FF08C146BA46BB
:1080900006E06B78042B0FD0052B21D02B781D44E4
:1080A0002B78002BF5D1F36913B15146072098477F
:1080B000002F7FF444AF50E795F80280A38895F82D
:1080C00003909845EAD163889945E7D1B8F1070F45
:1080D0001CD806EB0803AA4683F8BB900127DDE70E
:1080E000A3884345DAD1A3784B450AD0AF78384608
:1080F00000F02CFC3846FFF7E7FDB0FA80F77F0967
:10810000CCE72846FFF7AEFE0746C7E7AA4600279A
:10811000C4E794F900206378002A18DA002B7FF472
:108120001CAF24792D6863060AD02046FFF7EAFDCC
:1081300000283FF412AF96F8BA30002B3FF40DAF91
:108140002946204602F012F800236B70F2E6012B5C
:1081500008D0032B7FF401AF6388002B7FF4FDAEC2
:10816000012103E0618800297FF4F7AEA088FFF7C2
:1081700051FE00287FF4E3AEEFE600BFF0270020B9
:10818000AA280020022829607FF4F4AE4B883B60C7
:10819000D5E694F9000062780028BFF671AF002A96
:1081A0003FF466AF0A2A7FF4D8AE2A78002A3FF45B
:1081B000D4AE697804297FF461AFA9788B427FF44B
:1081C0005DAF072B96BF9B19002393F8BB308CF84B
:1081D0000030D4E613B5164C237DF3B9E268A168EC
:1081E000019201AB802008F03EF8019AA368134485
:1081F000A360E3689B1AE3606BB962B12369E2880C
:108200009A4208DD94F8C82093FBF2F102FB113387
:108210000BB90123237502B010BD00231A4619467D
:108220008020237502B0BDE8104001F0E5BF00BF1B
:10823000F027002030B585B0002302460D4601939B
:10824000002858D1002935D108220B460DEB020138
:1082500008F0EEF9002804DA802001F03FFF05B0B5
:1082600030BD2A4C029A2260039A626004F13802FF
:10827000A2609DF90820BDF80E302575002AC4E9DA
:1082800003550ADB802B04D9802001F027FF002052
:10829000E3E713B1C4E90333E1E7FFF74FFD00283B
:1082A000DAD0E28823699A42D4BFE260E360FFF744
:1082B00091FFD4E7154CD4E90215002D01AB04DC85
:1082C00008F0B6F90028CADAC6E72A4608F0B0F97D
:1082D0000028D9DB019AA3681344A360E3689B1AC2
:1082E000E360002BBBD104F13803A360FFF726FD48
:1082F0000028DCD1B0E78028B1D1044BDA68002A2D
:10830000D5D11B7D002BD2D1A9E700BFF0270020DB
:10831000054B064A9A62064ADA62064A1A63064A18
:1083200058629A6100207047F0270020E97E020021
:10833000ED7B02008D7C02002D7C02002DE9F341D3
:108340000446474D47484FF0FF334FF0FF3205F0EA
:10835000F3FB95F8B830002B7BD16B6A83B14248B0
:108360002C62E8616E6A02F061F801F04FFE041EB3
:1083700010DA3C4805F058FC204602B0BDE8F08118
:1083800000F0BEF8FFF7C4FF6B6A002BE7D14FF097
:10839000FF34EEE700F01AFB041EEADB7378012BD2
:1083A0005AD1F379002B57D00026684685F8C8309B
:1083B000ADF802308DF804608DF8006001F06AFEBF
:1083C000041ED6DB802768468DF8007001F062FE3F
:1083D000041ECEDB2549304602F014F8041EC8DB2B
:1083E0002249384602F00EF8041EC2DB204CDFF8AA
:1083F000848044451AD3002001F0D4FE041EB8DB6B
:10840000D5F8C430802043F00103C5F8C43001F032
:10841000C9FE041EADDBD5F8C43043F48033C5F883
:10842000C430012385F8B8300024A2E7276A00266B
:10843000227FF3B29A4201D82434DAE707EBC30271
:1084400057F83310107901F0DDFF01360028EFD026
:108450009DE76FF077048CE76FF0150489E700BFA4
:10846000F027002040020020697D020035820200D2
:108470002C0300205003002030B51F4B8BB005AA01
:1084800003F1100518685968144603C40833AB4259
:108490002246F7D11B7823701022002101A808F092
:1084A000F6FF12220021154808F0F1FF102101A863
:1084B00008F091FA00281BDD0828B8BF0820093809
:1084C00001AB0E491A18002012F8013F0AAC04EB68
:1084D000131403F00F0328336B44013014F8144CC9
:1084E00013F8143C0C7008284B7001F10201EBD119
:1084F00002480BB030BD00BF701E03007C37002067
:108500002DE9F04F724B93F800B087B0BBF1000F2C
:1085100003D0704807B0BDE8F08F6E4C00264FF0D6
:10852000011AB0463546B14623783BB96A4B02344E
:108530009C42F3D1664A01231370EAE76378052B66
:108540001BD8DFE803F08E03C38E1D39402304A837
:108550008DF810B0ADF812308DF814B008F03AF87C
:1085600040B1082304A8ADF8123008F033F808B180
:10857000ADF812B0BDF81230E37123781C44D3E794
:10858000E378002BF9D1A3786BB108F101085FFA09
:1085900088F8F2E76B689C4207D024354F4B9D4228
:1085A000F8D30020B6E74E4DF8E7AB68002BECD0CF
:1085B000414620469847E8E7002DF2D000222B7F65
:1085C0009A42EED2296AA07801EBC2010B79984257
:1085D00001D00132F3E70127E07800F003008DF8C5
:1085E0001400207994F805C040EA0C20ADF8120080
:1085F00094F902000028FBB228DA07F110004FF0CE
:10860000010C0CFA00F010EA0A0F26D143F08000AA
:108610008DF8100004A8CDE90213019207F0DAFFEB
:10862000DDE90121039BC0B99DF81020A27012F072
:10863000800F18BF10330A7118BFDBB24FF0010270
:1086400014BF9A40BA404AEA020A96E70120B840AD
:1086500010EA0A0F01D11846DAE70137102FBBD113
:10866000B7E7032E1AD1FFF707FF074650B1FDF712
:1086700061FD024630B11028A8BF10223946A01C67
:1086800008F0F7FE23786FF00201E218091B04EBF3
:108690005303D14213D50136F6B26EE7002EF1D165
:1086A000B9F1000F3FF47DAFA4EB090389F8023064
:1086B000C3F3072389F8033089F80480EBE702F855
:1086C00001BC13F8010902F8020DE2E7A14654E7E4
:1086D0007B370020840200202B0300205003002061
:1086E0002C03002010B5094B00211A461C78844247
:1086F00004D15C6814B102EB811010BD0131042972
:1087000003F14003F2D10020F7E700BFBC280020AE
:108710002DE9F34150F8283C10F82C6C1033044636
:108720000AD1036950F8202C980736D5D2B95907D9
:1087300015D5002344F8283C54F8283C10330BD0BE
:1087400054E9077554F8148C08F087FC00284FD0C2
:108750002E48214608F065FC02B0BDE8F08143F0E8
:108760000403236154F8241C01AB304607F07BFD61
:1087700010B16FF01503DDE7019A54F8243C13445F
:1087800044F8243C54F8203C9B1A44F8203C54F80C
:108790001C3C134444F81C3CCEE754F8241C01ABA9
:1087A000304601F0A5FD0028E3D1019D54F8243C9A
:1087B0002B4444F8243C54F8203C5B1B44F8203CF8
:1087C00054F81C3C2B4444F81C3C002DB1D03046DE
:1087D00001F032FEB5FBF0F303FB1055002DA8D1DC
:1087E00054F8203C002BA4D0304601F0C9FDA3E78B
:1087F00044F8180CA4F1100005F098FA002DABD045
:10880000424639463046A847A6E700BF102400205C
:108810004B1E012B73B506460D460FD8FFF762FFBE
:10882000044668B9012D09D101AB01220DF1030104
:10883000304601F05DFD019B002BF5D102B070BD0B
:1088400008F00BFC04F12C0108B1012D05D10846FC
:1088500002B0BDE87040FFF75BBF034802B0BDE85F
:10886000704008F0DEBB00BF102400202DE9F74F58
:10887000064601911546984607F03DFD044600283E
:108880005BD1EFF3118A202383F31288BFF36F8F3C
:10889000DFF8ACB000220023584605F07BFA70B92F
:1088A000DFF8A090A70109EB8414636813F1100F9F
:1088B00014D10193584605F039FA019B06E00134C2
:1088C000042C0BF1400BE5D16FF00B038AF31188F8
:1088D000BFF36F8F184603B0BDE8F08F019B206196
:1088E000C4E902350C9B63610D9BA36130466FF0B8
:1088F0000F0309F80760C4F83C80636001F09CFD39
:1089000058B1304601F098FDB5FBF0F303FB10556C
:108910001DB1E36B43F00403E36318F0020F07D0CB
:1089200007F12C010848494408F07BFB0023CDE700
:10893000304601F025FD0346C8E76FF00F03C9E795
:10894000D8280020BC2800201024002010B5EFF308
:108950001184202383F31288BFF36F8FFFF7C2FEC9
:1089600050B14368103307D16FF08B03436000F1BF
:108970002C01044808F055FB84F31188BFF36F8F76
:1089800010BD00BF10240020F8B50E4C0425202790
:10899000EFF3118687F31288BFF36F8F636810338C
:1089A00007D16FF08B030848636004F12C0108F0D5
:1089B00038FB86F31188BFF36F8F013D04F140044B
:1089C000E6D1F8BDBC2800201024002070B50A4C68
:1089D0000A4E00253146204608F007FB0122A4F18B
:1089E00010001146013508F0C4FA042D04F14004CA
:1089F000F0D1002070BD00BFE828002011870200E0
:108A00000169012381F84B300B6833B191F849308B
:108A10001BB10248083108F004BB70471024002045
:108A20000169012381F84A300B6833B191F848306D
:108A30001BB10248083108F0F4BA70471024002036
:108A400070B50569EFF31186202383F31288BFF315
:108A50006F8FD5F8900007F04DFA044686F3118821
:108A6000BFF36F8F30B104480022002305F11801D5
:108A700005F0F4FA204670BD1024002070B50123E3
:108A800082F8483013680D4614463BB192F84A30DC
:108A900023B10E4802F1080108F0C3FAD4F890306F
:108AA0009A681B699A4205D17DB904F1180140F614
:108AB000CD4204E004F11801002DF8D00022BDE8F9
:108AC00070400248002305F0C9BA70BD1024002090
:108AD00070B504460E4601791548154607F0E7FBC8
:108AE00010B394F900206378002A16DB202B04D001
:108AF000222B0ED06FF085000AE02B681A6840F830
:108B0000102C9A8820F80C2C9B7900F80A3C002045
:108B100070BD638800F8093CF9E7212BEAD11038D1
:108B2000072328603360F2E76FF01200F0E700BF20
:108B3000BC29002008B50146034807F0C6FB10B168
:108B4000012300F8073C08BDBC2900200D4A03465C
:108B50000021A0F848101068C3F89400908892791A
:108B6000A3F8980083F89A2083F89C1083F89B1050
:108B7000A3F89E1083F8A010402203F14C0008F0E7
:108B800086BC00BF5819030010B504690023C4F85F
:108B9000A8300C4BC4F8A400596804F1A80269B9C4
:108BA000C3E9002204F10800074908F01EFA04F1A5
:108BB0001800064908F045FA002010BD0A605A6006
:108BC000F0E700BFBC29002021030300858C0200D0
:108BD00030B54FF40033426805690D4C85B042F260
:108BE000A100CDE90103002385F89D30106AADF89E
:108BF0000C1000790A2201A907F035FB95F89D3089
:108C000023B9012008F089F8013CF7D105B030BD47
:108C1000A186010073B504698DF80710002384F85C
:108C200048302025EFF3118685F31288BFF36F8F4C
:108C30000122D4F890000DF1070107F05BF986F3EB
:108C40001188BFF36F8F01280AD008F006FA10B917
:108C500094F8A1306BB9094B1A780AB901221A703D
:108C60002122002304F11801054805F0F7F902B0AC
:108C700070BD0021212008F0A8FAD3E78E3700202C
:108C800010240020F0B5D0F88C305B681B6A1F7D83
:108C900085B00546384607F02EFB064648BB95F8DA
:108CA000863033B3A86F0146836851F8102F9B1AA2
:108CB000B3F5806F28BF4FF4806303AA07F0D0F8A4
:108CC0000446B0B18306A5F1180308BF00F1FF34D4
:108CD00085F830600193084B0399009322460223E4
:108CE0003846FFF7C3FDA86F224600F1100107F0D8
:108CF000EBF805B0F0BD00BF7D8A020037B5144621
:108D00000A1E054620DDD4F88C0004F14C0107F062
:108D1000F1F8012384F8493023683BB194F84B30D3
:108D200023B1114804F1080108F07BF9D4F88C1044
:108D30004B684A699A1ACB699B1A3F2B04D80123C6
:108D400084F8A03003B030BD94F89E30002BF9D0E9
:108D5000064B009301940123402204F14C01284664
:108D6000FFF784FDEEE700BF10240020FD8C020019
:108D7000F7B50D4601461D4807F08DFA044610B3BD
:108D80000646691E56F8A4395F6805291BD8DFE836
:108D900001F01C1A031C222610F8061C99B90123A5
:108DA00000F8063C3B6A3246187BFFF7A7FF14F831
:108DB0005C2C42B93B6A187D0D4B0093019602234F
:108DC0001146FFF753FD03B0F0BD304603B0BDE8D8
:108DD000F040FFF7BBBE012304F8053CF3E710F8B1
:108DE000053C002BEFD00023F6E700BFBC29002094
:108DF0007D8A020037B5094D0949002400944FF0DF
:108E0000FF334FF48062284605F0EAF8054928460A
:108E100008F029F9204603B030BD00BF102400201F
:108E2000A03A00208F1E03002DE9F047064600AF50
:108E30000C46002936D0E9468AB0D1E90012A36871
:108E40006D462148A8464FF0050AC5E90501C5E968
:108E5000072348F810AF1D48424600234FF4215124
:108E6000FEF700FCCD46D4E903126369AD4618480D
:108E7000C5F810A0C5E90501C5E90723134800237B
:108E800042464FF42151FEF7EDFBCD46E369114A0E
:108E90000E48012107F01DF9A3690F4A0B48012173
:108EA00007F017F9012E07D1EFF305830B4A0748A6
:108EB000103B314607F00DF92146304604F052FCD4
:108EC000BD46BDE8F08700BF981E03001C190300D3
:108ED000C71E0300F61E0300051F0300331F030017
:108EE00030BFFFF7FDBF00BF2DE9F0410B4EDFF8AB
:108EF000308006EB0807CC1B054632460949204660
:108F000008F0B7FAA01942460021083C08F0BFFA61
:108F10002C6707F10800BDE8F08100BF00000000E9
:108F20000400000044190300054B5A699B689A42EB
:108F30001FBF044A536843F080535360704700BF1B
:108F40004035002000ED00E070B52A4C06460D4685
:108F500029482A4907F0E1FAA36ADB0647D52648E3
:108F6000274907F0DAFA1120A36A1C0704D5224822
:108F7000244907F0D2FA12201E4CA36A990712D591
:108F800021491D4807F0C9FA636BA26A120609D588
:108F90001E4A1948012107F09CF81EB1A36A23F06C
:108FA0008003A3621320134CA36ADE0704D5124882
:108FB000174907F0B2FA1420A36A9C0604D50E489C
:108FC000144907F0AAFA15200A4B9A6AD10658BF2D
:108FD0009A6A9A6A920642BF5A6A22F400525A6208
:108FE0009A6A42F0FF029A6200232B7070BD102033
:108FF000BAE700BF00ED00E01C190300461F0300A4
:109000005C1F03008F1F0300A21F0300BA1F030091
:10901000D01F0300EF1F030010B5204C204921484A
:1090200007F07BFAA36A990136D51E481E4907F05E
:1090300074FA1E20A36ADA0104D51A481B4907F006
:109040006CFA1F20154CA36A1B0304D51548184958
:1090500007F063FA2120A36A590304D51148154982
:1090600007F05BFA22200D4CA36A9A0304D50D4841
:10907000114907F052FA2320A36ADB0304D50948FB
:109080000E4907F04AFA2420044A936A6FEA034320
:109090006FEA1343936210BD1D20CBE700ED00E0A3
:1090A0001E2003001C190300362003004920030082
:1090B0006320030081200300A6200300C0200300DA
:1090C00070B5294C06460D462848294907F025FA6F
:1090D000A36AD9043CD52548264907F01EFA172073
:1090E000A36A1A0504D52148234907F016FA182067
:1090F0001D4CA36A9B0512D51C48204907F00DFAA8
:10910000A36BA26A100409D51D4A1848012106F074
:10911000E0FF1EB1A36A23F40043A3621920124C9E
:10912000A36A590504D51148164907F0F6F91A2023
:10913000A36ADA050ED50D48134907F0EEF91B2096
:10914000094A936A43F47F43936200232B7070BDF6
:109150001620C5E7A36A9B04F2D504480B4907F023
:10916000DCF91C20ECE700BF00ED00E01C19030057
:10917000EB200300012103008F1F030012210300D5
:109180002B210300402103005B210300EF1F03009C
:109190002DE9F041654B8AB0D3F8048000AF044656
:1091A000C8F30805002686F31188BFF36F8F02F01D
:1091B0007F43B3F17F4F07D102F00C03082B12D18C
:1091C0005B495C4807F0A9F9002634460023FB718F
:1091D000EB1E092B00F28980DFE803F00A7F827B17
:1091E00087878787878510074CBF0C460126EDE7E8
:1091F000514950484D4D07F090F90023FB71EB6A3F
:109200009A0705D54D494B4807F087F9002331E00F
:10921000EB6A002B01DA4A49F5E7EB6A5B00F5D50A
:109220004849444807F079F96B69A26943F48073AF
:109230006B61BFF34F8FBFF36F8F6B6932F8022CF6
:1092400023F480736B61BFF34F8FBFF36F8F4DF6C5
:1092500002739A4207D0AB6ADBB26BB3F91D0120EF
:10926000FFF772FE37E02368374A3248012106F0E3
:1092700030FF2368FA79DAB907F1080504F1200C08
:10928000206861682A4603C2083464451546F7D150
:109290007A6A002E45D0C2F3080121B96FEA522242
:1092A0006FEA42227A6207F108011846FFF7BCFD17
:1092B0002837BD46BDE8F081AB6A13F47F4F04D078
:1092C000F91D0120FFF7FCFE05E0AB6AB3F5803F16
:1092D0009CD3FFF7A1FE0346CCE7F91D0020BFE7B2
:1092E000F91D0020EEE719498DE7194A194B18F4CA
:1092F000F87FE8468AB018BF13466A461649C2E9A5
:1093000005134FF400731384103D144BD56142F8DC
:10931000103F084800234FF41151FEF7A3F9C5464A
:1093200074E722F4FF7222F00102BBE700ED00E0D7
:10933000A12103001C190300CC210300E321030039
:109340000422030012220300312203004D220300F5
:10935000882103007321030071220300040000012F
:10936000044B5A6942F010025A615A6922F008020D
:109370005A61704700ED00E0EFF30880EFF30981D8
:1093800001B57246FFF704FF01BD00BF03F020F8EE
:10939000202080F3118808484FF40061401880F3C2
:1093A0000988EFF314800221084380F31488BFF387
:1093B0006F8F00F09DF80000A0420020084B9B68D2
:1093C00083420BD1EFF3058343B1064B5A6842F059
:1093D00080525A605A6A22F400425A6205F068B913
:1093E0004035002000ED00E011498A684FF0300060
:1093F0001044EFF3098C80E8F01F202080F31288DE
:10940000BFF36F8F0B4F4FF000664A698A603E6072
:10941000106F094C2060506F0023536780F3118850
:1094200002F1300090E8F01F8CF3098870470000CB
:109430004035002004ED00E0C42900201EF0040F98
:109440000CBFEFF30880EFF30980816911F8021C6B
:109450000229FFD001B5724607F054F801BD00BFE4
:1094600040B2002807DB044A4109012300F01F0035
:10947000834042F82130704700E100E040B200280C
:109480000CDB4309064900F01F0020330122824013
:1094900041F82320BFF34F8FBFF36F8F704700BF9A
:1094A00000E100E0054B420900F01F0053F82220C4
:1094B000012303FA00F01040704700BF00E100E014
:1094C00040B20028A8BF00F1604001F10101B8BF1F
:1094D000064B4FEA4111ACBF00F5614000F00F00B0
:1094E000C9B2B4BF195480F80013704714ED00E0FE
:1094F0000F4A08B50F4B22F07F029A60BFF34F8FDF
:10950000BFF36F8FD3F8882022F47002C3F888204D
:10951000EFF3148323F0040383F31488BFF36F8FF6
:1095200004F00CFA05F0F8F900F044F804F05AFAE7
:109530000060020000ED00E042F8203C009B42F891
:109540001C3C0A49019B42F8183C029B42F8143C1F
:1095500021F001014FF0807342F8043C42F8081CEE
:109560000023203A02654367704700BFDD6E0200AA
:1095700000B5094B9860094B1546026F1A600E46FC
:109580002C4686F309880020054B98472046002189
:1095900000220023034C204740350020C42900202E
:1095A0002B050300DD6E0200014B10221A6170478B
:1095B00000ED00E0044800232021C2180133302BC5
:1095C00082F80013F9D1704700E100E008B5EFF32D
:1095D0000583064A103B02EBC30152F83300496889
:1095E0008847BDE80840FFF79FBC00BF8016030016
:1095F000024B034A0348012100F07AB8000004201E
:10960000000000202C1A030008B503461048D0F8CB
:109610009020C2F30722013A934207D90D480E4A1F
:10962000012106F056FD6FF0150008BDC0F8983016
:109630000A6822F01F021A4342F01002C0F89C2070
:109640008A6842F00102C0F8A0201846EDE700BF8A
:1096500000ED00E00419030088220300F0B50E4677
:1096600085B01F4604460025B5420DDA606810B388
:1096700097B1431E18420AD0104A11482B460121C7
:1096800006F027FD6FF01502104605B0F0BD1F284B
:10969000F2D921680B42EFD12368019306F068FFED
:1096A000A36801A90343D0B20393FFF7ADFF10F104
:1096B000160FE7D0421C01350C34D5E7AE2203006B
:1096C00004190300044B0522C3F89420BFF34F8F05
:1096D000BFF36F8F704700BF00ED00E0BFF35F8FF7
:1096E000024B0022C3F89420704700BF00ED00E059
:1096F00010B5034C01232278FFF7B0FF207010BD96
:109700008F3700202DE9F04357485849D0F8903062
:109710000D68C3F307239D4285B000F2A180FFF7D7
:10972000DDFF49680022954201F10C011AD1504C2D
:10973000504F25706846FEF753FADFF83C81DFF89A
:109740003C9106460025AE421FD1237846490020B1
:10975000D1F89020C2F3072293427BDBFFF7B2FFE0
:1097600000204CE0C0F8982051F80C3C23F01F0377
:10977000134343F01003C0F89C3051F8043C43F00D
:109780000103C0F8A0300132CDE7009800EB0511CD
:109790004FEA051CCB683B40B3F5000F44D00AD814
:1097A000B3F5001F2ED0B3F5800F34D0B3F5801F72
:1097B00010D00135C7E7B3F1807F3ED0B3F1007F11
:1097C000F7D150F80C3088684A6806F0D1FE40F4B2
:1097D000802009E050F80C3088684A6806F0C8FE1E
:1097E00040F0885040F43020039001A92078CDE962
:1097F0000123FFF709FF002828DA6FF0150005B0F4
:10980000BDE8F08350F80C3088684A6806F0B0FE76
:1098100040EA0800E8E750F80C3088684A6806F02B
:10982000A7FE40EA0900DFE750F80C3088684A6874
:1098300006F09EFE40F08270D6E750F80C30886843
:109840004A6806F095FE40F08870CDE72378013332
:109850002370AEE7C1F89830C1F8A000013377E774
:109860004FF0FF30CBE700BF00ED00E0381A0300F7
:109870008F3700200000F0FF0000081100000207F1
:10988000F0B587B007460E46144600211022684600
:109890001D4607F0FCFD02238DF802302A46054BD9
:1098A000019321466846CDE9047605F093FA07B0A6
:1098B000F0BD00BF9105030008B5024B1B68984737
:1098C000002008BDC8290020034B044A1860937883
:1098D00043F0020393707047C8290020180100204C
:1098E00008B50649064821F00701C1F1005202F50A
:1098F000802205F078FE002008BD00BF675E0020D2
:10990000CC290020044A0123C2F840354FF08042A0
:109910000020C2F87835704700E0014020B1034BC9
:10992000800143F001031847704700BF601903002E
:10993000020600F07F0312D5082B05D1010700F0C5
:109940000F0306D50E48704710F0780F12D100F0C3
:109950000F034C2000EB43100A4B18447047082BB0
:1099600005D1020700F00F0306D50748704710F035
:10997000780FF6D000207047044800EB4310704782
:10998000242B0020D8290020442C0020442B002028
:109990000149024807F045BB002A0020B0240020FE
:1099A0000146014807F0DABA74020020024800229A
:1099B000002304F089B900BF7402002013B51248D7
:1099C00000F0C4FE114B98421AD1114803F01CFB61
:1099D0000024104803F05EFB0F49104800944FF03C
:1099E000FF334FF4806204F0FBFA0D490B4807F097
:1099F0003AFB0C480C4907F0F8FA204602B010BDBB
:109A00006FF00400FAE700BF119C02000000AD0BEC
:109A1000F2220300581A0300A03E0020B0240020C8
:109A2000E4220300002A00202D9D020010B50E49FB
:109A3000BFF35B8F002351E8002F012A03D141E8D7
:109A400000300028F7D1BFF35B8F0CD151F8044CE4
:109A50001439204606F0CBF9783004D12046BDE811
:109A6000104006F0A0B910BDF829002038B5002438
:109A700064F07F00C0B2FFF75BFF013406F093FD96
:109A8000082CF5D10E4D0024E0B2FFF751FF036919
:109A900003B90561013406F086FD082C05F1400587
:109AA000F2D1084806F07FFD074BD3F87C2212B9AB
:109AB000064AC3F87C22064806F075FD002038BD32
:109AC00068300020242B0020D8290020682C00209A
:109AD000442C002010B5054CFFF768FF20B1416809
:109AE000204607F069F9F7E710BD00BF2402002007
:109AF00007B500230E48002201A903F0EFFF90B143
:109B0000FFF7E8FF0A480022002301A903F0E6FF5F
:109B100038B90198042340600374FFF741FFFFF751
:109B200037FF002001E00198406003B05DF804FBBE
:109B300024020020022810B511D8094B1C5CFFF745
:109B4000D7FF60B1002202740472FFF729FF054BB2
:109B500093F824301BB1BDE81040FFF719BF10BDCA
:109B6000EF220300D8290020F8B58778064638464A
:109B7000FFF7DEFE3B06F578044612D5002D43D1F3
:109B8000FFF7B6FF034600283ED00122A5770274F6
:109B9000032202739C60FFF703FFBDE8F840FFF764
:109BA000F7BE4DB1012D2FD1FFF7A2FF034658B3E9
:109BB000657705740573EDE7FFF79AFF20B3B27878
:109BC000124B12F0800F02F0080111D041B1D3F80E
:109BD000A836E36001230374022303738460DAE789
:109BE00002F00F02142101FB0233D3F80836F0E72C
:109BF00011B1D3F8A837ECE702F00F02142101FBF2
:109C00000233D3F80837E4E7F8BD00BF0070024024
:109C1000F0B5064689B01422002103A807F037FCEE
:109C20003378013B052B21D8DFE803F07A031414C5
:109C30006A1603238DF814300024FFF759FF0346FA
:109C4000A0B1047400F10802DDE9050182E8030017
:109C500018461DE00423EDE7B7783846FFF768FEA5
:109C6000837A044623B1013B022B43D909B0F0BDEE
:109C70003B06F57813D5002DF8D1FFF739FF0346E1
:109C80000028F3D00122A5770274032202739C609E
:109C9000FFF786FE09B0BDE8F040FFF779BE55B189
:109CA000012DE3D1FFF724FF03460028DED06577BE
:109CB00005740573EBE7FFF71BFF07460028D5D0B7
:109CC0000123037402230373846004F10C01B07850
:109CD00006F0CAFC134AE168B2F88C328B4206D90E
:109CE0005B1AA2F88C3201F07FF83846D0E7A2F870
:109CF0008C52FAE7304609B0BDE8F040FFF734BFB8
:109D000001A801F04FF89DF80530052B04D19DF80E
:109D1000043013F0600FA9D0034B059301248CE7A6
:109D200002248AE7D8290020442B00202DE9F043A3
:109D3000A64CDFF89C9285B08046FFF737FE0746B9
:109D400010B905B0BDE8F08394F825303A7C3BB9F2
:109D5000002A00F0868079689D4807F02DF8ECE72E
:109D6000042A42D8DFE812F07D0005000001160148
:109D700040013B7BBD68032B37D8DFE803F0023D91
:109D80005A5F6E69934B002232607260D3F8801480
:109D90003170D3F884147170D3F88814D3F88C041C
:109DA00041EA00217180D3F89014D3F8940441EA79
:109DB0000021B180D3F89814D3F89C3441EA0323EE
:109DC000F3800823EB6030687168834B03C311464E
:109DD0002B68687A984796F90030002B08DBF388E7
:109DE00033B1A4F88C3200F0FFFF79684846B4E73D
:109DF0000023A4F88C32F8E76B7F002BF5D02B7F83
:109E0000002BF2D000266E774FF0FF3273482E778A
:109E10004FF0FF3306F0DAFB6B6901936B68CDE915
:109E2000023601A9687A00F0E7FC6C4806F0D0FB26
:109E3000DBE72B680121687A9847D6E7AB7A6BB9E4
:109E4000EB7F5BB965484FF0FF324FF0FF3306F010
:109E5000BDFB00F0CFFF614806F0BAFB2B68022182
:109E6000E9E73A7A042AC0D8DFE802F05903236709
:109E7000730000F02BFC05460028B6D100F066FB0D
:109E8000BFF35B8F5649012351E8002F002A03D10D
:109E900041E800300028F7D1BFF35B8FA5D141F82E
:109EA000085C41F8105CE0696361143905F024FF37
:109EB0009BE7002565F07F00C0B2FFF739FD037A0C
:109EC00013B1407A01F0FAF80135082DF2D194F877
:109ED00054311BB194F8550101F0F0F80025E8B2B7
:109EE000FFF726FD037A13B1407A01F0E7F8013558
:109EF000082DF4D194F874321BB194F8750201F076
:109F0000DDF8002000F0C6FB012384F8253023682B
:109F1000002B3FF46AAF00210220984765E7002537
:109F200084F8255001F030F8FFF780FD2368002BFE
:109F30003FF45BAF29460420EFE7002B3FF455AF19
:109F400000F0CEFB2368002B3FF44FAF002105202B
:109F5000E3E72268002A3FF448AF002B3FF445AF07
:109F600000210620904740E708F110054FF0FF332D
:109F70004FF0FF32284606F029FBFFF777FD284611
:109F800006F026FB58F8283C002B3FF42EAF0021AA
:109F90000120C2E794F874327BB1012584F889521C
:109FA00084F88852FFF7A4FD38B10E4A0574057392
:109FB0008260FFF7F5FCFFF7EBFC58F8283C002B1C
:109FC0003FF413AF00210A20A7E700BFD8290020E3
:109FD0002402002000700240DC290020102A00200A
:109FE000F8290020442C002006F0E4FD00F0CCFF0E
:109FF00000F0A2FAFFF76EFDFFF738FD06F0D3FD83
:10A00000014800F0A3FBF0E6119C020038B5164DA4
:10A0100095F824402CBB05F1380006F017FF2046C8
:10A0200001F09EF922460121E8612720FFF748FA56
:10A0300006F0B9FDFFF71AFD044610B9012385F8B3
:10A0400024300A4B1B680BB1FFF7A2FC4FF0804392
:10A05000D3F83834DB0702D50020FFF76BFD20462C
:10A0600038BD0024FBE700BFD8290020740200207F
:10A07000074B93F824203AB193F82530002B14BFF6
:10A0800000206FF0120070476FF01200704700BFA1
:10A09000D829002038B5104B93F824300446C3B1BA
:10A0A00005782846FFF744FC10B96FF0150038BD5D
:10A0B000457223798372638843602078618810F049
:10A0C000080F02D14B1E0B42EFD106F0C8FA002058
:10A0D000EDE76FF01200EAE7D829002038B5124BFF
:10A0E00093F824200546CAB193F82530B3B1FFF7A1
:10A0F0001FFC0446A8B1837A012B12D007D9023B7A
:10A10000012B07D96369A3610020E06038BD00F02E
:10A1100077FEF7E7284600F019FEF3E76FF012002C
:10A12000F4E76FF01500F1E7D829002038B50E4BA1
:10A1300093F82420054682B193F825306BB1FFF7E0
:10A14000F7FB68B115F008040AD1284600F020FE9C
:10A15000284600F0EBFF204638BD6FF01200FBE709
:10A160006FF01500F8E700BFD829002038B50C4B78
:10A1700093F8242005460C4662B193F825304BB184
:10A18000FFF7D6FB48B144B1284600F0E7FD207048
:10A19000002038BD6FF01200FBE76FF01500F8E704
:10A1A000D829002070B5134E96F824300446C3B168
:10A1B000FFF7BEFB0546B8B1230705D4204600F0E3
:10A1C000E7FD204600F0B2FF2B7A83B901232B7202
:10A1D00096F825300BB9002070BD204600F06EFFC8
:10A1E000F9E76FF01200F7E76FF01500F4E76FF092
:10A1F0007700F1E7D82900202DE9F043DFF8E4806B
:10A200001E4698F8243085B0074689461546002B2F
:10A2100061D098F82530002B5DD003065ED5FFF79E
:10A2200087FB0446002859D0037A002B56D04FF004
:10A23000FF334FF0FF3208F1380006F0C7F9A37F73
:10A240004BB108F1380006F0C3F96FF00A0420465C
:10A2500005B0BDE8F083A37AC5B13BB30123A37772
:10A260004FF0000801A93846CDE90195CDF80C80E2
:10A2700000F0C2FA1C4B984229D084F81E801EBB05
:10A280006FF00404194806F0A3F9E0E7E27F02B199
:10A29000E577002BE2D100F0B9FDB842DED000F046
:10A2A000A9FD124806F094F90024D0E7B8F80A3066
:10A2B000AB42F0D96268B5FBF2F302FB1353002BFB
:10A2C000E9D10123E377E6E7C6F80080D8E706B1D5
:10A2D00035600024D6E76FF01204B8E76FF015047C
:10A2E000B5E700BFD82900200000AD0B102A0020E0
:10A2F0002DE9F0411D46204B174693F824200E46C9
:10A30000002A33D093F8253083B3030631D401B942
:10A310007FBBFFF70DFB044658B3037A4BB34FF0F6
:10A32000FF3316484FF0FF3206F050F9E3689F42C2
:10A33000B84628BF984646B93FB905B12B600F48CB
:10A3400006F046F90020BDE8F081A169424630469A
:10A3500007F08FF8A3694344A361E368A3EB080304
:10A36000E360002DEBD0C5F80080E8E76FF0120045
:10A37000E9E76FF01500E6E7D8290020102A002051
:10A3800070B51E4D95F82420034682B395F825201C
:10A390006AB31B062ED4FFF7CBFA044650B3037AF8
:10A3A00043B34FF0FF334FF0FF3205F1380006F0B2
:10A3B0000DF9E368B3B9012663692677A361637F6A
:10A3C00083B1FFF795FB30B905F1380006F000F9CD
:10A3D0006FF00B0070BD067484600673FFF7E0FA3F
:10A3E000FFF7D6FA064806F0F3F80020F2E76FF020
:10A3F0001200EFE76FF01500ECE700BFD82900204E
:10A40000102A002010B5084B93F824300C462BB1CD
:10A41000FFF78EFA28B10460002010BD6FF0120023
:10A42000FBE76FF01500F8E7D8290020014B186012
:10A43000704700BFD829002008B5074B93F8243097
:10A4400023B1FFF775FA20B1406808BD6FF0120024
:10A45000FBE76FF01500F8E7D82900204FF0805394
:10A46000D3F83021082A06D1D3F83431052B04D88B
:10A47000034AD05C7047002070470120704700BF3E
:10A48000F3220300064B10F0800FA3F1D80208BF9F
:10A49000134600F00F00182202FB0030704700BF87
:10A4A00080330020EFF31180202383F31288BFF361
:10A4B0006F8F0A4BD3F8001C032261B949F2753142
:10A4C000C3F8001CC3F8142DC3F8001C80F31188D6
:10A4D000BFF36F8F7047C3F8142DF7E700E0064015
:10A4E000EFF31180202383F31288BFF36F8F0A4BA1
:10A4F000D3F8001C61B949F27532C3F8002CC3F8D7
:10A50000141DC3F8002C80F31188BFF36F8F7047C0
:10A510000022C3F8142DF6E700E006404FF0805308
:10A52000D3F83031082B02BF024B0022C3F81C2C99
:10A53000704700BF00700240024A00231360024AC5
:10A5400013707047603400209437002008B54A4BE0
:10A550004FF40062C3F80024FFF780FF08B1FFF753
:10A56000A1FF4FF08053D3F83031082B18D1EFF30F
:10A570001180202383F31288BFF36F8F3F4BD3F8F2
:10A58000001CC02200296ED149F27531C3F8001CAD
:10A59000C3F8142CC3F8001C80F31188BFF36F8F2D
:10A5A000354B0122C3F80025D3F800241205FBD552
:10A5B0004FF40062C3F800244FF08053D3F83031D9
:10A5C000082B17D1EFF31180202383F31288BFF3F8
:10A5D0006F8F2A4BD3F8001C002947D149F27532FE
:10A5E000C3F8002CC3F8141CC3F8002C80F31188A6
:10A5F000BFF36F8FFFF732FF30B1FFF771FFFFF747
:10A600002DFF08B1FFF74EFF4FF08053D3F83031E4
:10A61000082B194B0AD140F2E372C3F800284022FC
:10A62000C3F80428BFF36F8FBFF34F8F8022C3F8A6
:10A630001C250122C3F83025114B40F2FF121A608D
:10A64000104B00211960104B1970FFF767FF0F4B7B
:10A6500019700F4B02221A70FFF700FF50B1BDE8CE
:10A660000840FFF73DBFC3F8142C95E70022C3F85C
:10A67000142CBBE708BD00BF0070024000E006409C
:10A680005C3400205834002090370020923700209E
:10A6900094370020094B002210B51A70084A094B64
:10A6A000094C002808BF1346C4F800332720FEF7E2
:10A6B000D7FE0123C4F8043510BD00BF9337002036
:10A6C000FDFFDF01FDFFFF0100700240034B187822
:10A6D000012894BF00200120704700BF943700205C
:10A6E00010B54FF0FF324FF0FF33154803F052FB27
:10A6F000EFF31181202383F31288BFF36F8F114B87
:10A700001B7803F0FF0483B10F4BD3F8002412F43D
:10A7100000720AD10120C3F82C05D3F82C05D3F818
:10A720000004800502D5C3F82C25002481F311888C
:10A73000BFF36F8F024803F0F9FA204610BD00BF47
:10A74000540200209337002000700240F8B51C4BE3
:10A750001C7894BB1B4A106001221A7040F2FF174C
:10A76000264664F07F0514F0080FEDB214BF394699
:10A770004021284605F073FF2846FFF783FE013489
:10A78000092C867506730661EBD1002440F2FF1791
:10A79000254614F0080FE6B214BF39464021304672
:10A7A00005F05DFF3046FFF76DFE0134092C85751D
:10A7B00005730561EDD10448F8BD0448FCE700BF0E
:10A7C00094370020603400200000AD0B0500AD0B75
:10A7D000084B10F0800F00F00F0114BFD3F81025C4
:10A7E000D3F8142501238B40134214BF012000200D
:10A7F000704700BF007002402DE9F8430246EFF3B6
:10A800001187202383F31288BFF36F8F030703D1CF
:10A81000184B1B78834229D1174B184E1C6835689A
:10A82000104605F014FFE443A4B24FF001092C4395
:10A8300009FA00F814EA08041AD11046FFF722FEBC
:10A8400080F80C90034607C91C6183E807009C75DB
:10A850000B4B0C4845EA080580223560C3F80421FB
:10A8600087F31188BFF36F8FBDE8F8830648F7E7D9
:10A870000648F5E7923700205C3400205834002069
:10A8800000E100E00000AD0B0A00AD0B0B00AD0BCA
:10A8900010F0080F074B06D0D3F8C00410F4803F27
:10A8A00018BF0020704700F00F0000F5947053F8B7
:10A8B00020007047007002402DE9F74FAB4BAC4EC3
:10A8C000D3F85421DAB10022C3F85421D3F8041389
:10A8D000890214D58DF80420D3F82025ADF8062080
:10A8E000D3F8C034002B336814BF4FF001224FF46B
:10A8F0008072134333609F4B01A81B6898479B4BA2
:10A90000D3F8604134B10022C3F86021D3F86C441D
:10A91000C3F86C44D3F828214AB10022C3F8282197
:10A92000954B187805F093FE012383401C43DFF814
:10A930004C82934F98F8005098F9009015F0080158
:10A9400043D1B9F1000F05F00F032EDA8D4A52F80A
:10A95000230020B342F823101422534303F1804311
:10A9600003F51C33D3F80836874A117803F0010346
:10A970004B401370FFF7D2FD844803F0D7F9284607
:10A98000FFF780FD837D032B37D1284605F05FFE5E
:10A99000012303FA00F03B6823EA00033B60DFF881
:10A9A000D4A101254FF006095DE0794A52F8230051
:10A9B0000028F4D042F823101422534303F18043BB
:10A9C00003F51C33D3F80837CEE7B9F1000F674B16
:10A9D00009DBD3F85021002AE1D00022C3F850212E
:10A9E000D3F8A837C0E7D3F82C21002AD7D000220B
:10A9F000C3F82C21D3F8A836B6E7037BDBB9284689
:10AA000005F025FE012303FA00F03B68B9F1000FC1
:10AA100023EA00033B6001DA882DC0D106238DF8BC
:10AA2000043000238DF80730524B8DF806501B6818
:10AA300001A89847B3E7002DB1D14C4B0122DA644D
:10AA4000ADE794FAA4F03268B0FA80F005FA00F3AA
:10AA50001A430F28326024EA03043A6840F39C80CA
:10AA6000134200F0A980002CEBD1404BD3F8002119
:10AA70005AB1C3F80041474B1C703F4B1C70012377
:10AA800001933C4B01A81B689847384BD3F85821D9
:10AA9000002A2ED00022C3F85821D3F80044C3F86E
:10AAA0000044E30508D53B4B01221A7002230193B1
:10AAB000304B01A81B689847A50508D5354B0022E7
:10AAC0001A70032301932B4B01A81B68984760055C
:10AAD0000FD5304B1A7862B100221A70234B012235
:10AAE000C3F808259A6504230193224B01A81B682B
:10AAF00098471E4BD3F85C3103B3244B9B681BB9BA
:10AB000098F80030590619D0184B0022C3F85C2180
:10AB1000D3F88034184A23F07F0313703B6823F086
:10AB200001133B60336823F4803343F00103336047
:10AB3000052301930F4B01A81B6898473A683368B7
:10AB40001A4200F0EB8011480022002303F022F9A2
:10AB5000002840F0E380054BD3F82C35002B7BD048
:10AB60000A4803B0BDE8F04F03F0E0B800700240BF
:10AB70005C340020603400209237002091370020A0
:10AB80005834002008710240903700205402002001
:10AB9000307102409337002013407FF464AF60F0BF
:10ABA0007F018DF804908DF806108DF80730DAF8E3
:10ABB000003001A8984756E7A0F110018DF80490E5
:10ABC0008DF806108DF80750F1E749F0800528460A
:10ABD000FFF758FC4368B0F814A001689A4528BFF5
:10ABE0009A4601F06043B3F1005F044604D0544834
:10ABF000524606F03EFC5249226863685244226085
:10AC0000A268A3EB0A03D20768B2636053D5BAF116
:10AC1000000F52D1002323734FE011464FF0000A7A
:10AC2000604545D1003B18BF0123002A42D0504562
:10AC300040D9012303FA09F32BEA03033B600623FF
:10AC40008DF804303F4B8DF8065002221B68A27528
:10AC50008DF8072001A89847D7F800B033681BEAA1
:10AC600003093FF47DAF19F0012314BF93FAA3F950
:10AC700099FAA9F9B9FA89F9B9F10F0FA5D9A9F18A
:10AC80001005EDB22846FFF7FDFB04462846FFF706
:10AC9000FFFD6368B4F814C022689842BDD81B1A3F
:10ACA00000EB020E11466360C4F800E08246B7E78D
:10ACB0000023BAE768B2002BACD04FF08053D3F832
:10ACC0003031082B02BF204B8222C3F81C2C336882
:10ACD00088F80050012202FA09F923EA09033360D7
:10ACE000236915F0080F53442361174B19D100282D
:10ACF00005F00F054FF0140000FB0530A9BF0A3521
:10AD000003EB8503C0F80017C0F804A7AFBF43F8F2
:10AD10002520C0F80016C0F804A65A6003B0BDE8AC
:10AD2000F08F0028B5BFC3F8A016C3F8A017C3F86A
:10AD3000A4A6C3F8A4A7B4BF5A629A64EEE700BF02
:10AD4000683200206034002000700240024B40F462
:10AD50008070C3F81805704700700240030713D4D1
:10AD600000F00F0310F0800F084A0BBF03F5887343
:10AD700003F5847302EB830252F8230008BF506886
:10AD8000003818BF01207047002070470070024053
:10AD9000034BC3F80C0540F48070C3F80C057047F2
:10ADA000007002400023036043600E4BD3F8802400
:10ADB0000270D3F884244270D3F88824D3F88C141A
:10ADC00042EA01224280D3F89024D3F8941442EA54
:10ADD00001228280D3F89824D3F89C3442EA0323DA
:10ADE000C380704700700240014B0122DA64704753
:10ADF00000700240014B01221A657047007002404A
:10AE0000014B01225A65704700700240014B1878CF
:10AE1000704700BF9237002010B50246EFF311844F
:10AE2000202383F31288BFF36F8F05F010FC0B49CA
:10AE3000012303FA00F00B6823EA00030B6012F011
:10AE4000080101BF02F00F02054B02F5947243F8AE
:10AE5000221084F31188BFF36F8F10BD5C34002083
:10AE600000700240F7B50146EFF31185202383F30C
:10AE70001288BFF36F8FFFF705FB0646084605F003
:10AE8000E6FB012211F0800F02FA00F22D4818D1E2
:10AE9000036832EA03040AD00846FFF7BDFF032324
:10AEA000B37585F31188BFF36F8F03B0F0BD2649EA
:10AEB000347323EA020303600B6823EA02030B6086
:10AEC000EDE70B0715D48029204B2FD001F00F049C
:10AED00004F2DA346400C3F80048D3F80448D3F825
:10AEE0000478E4B244F002043C43C3F80448D3F8C5
:10AEF0000438154F04683B6864EA030C1CEA020F2F
:10AF0000CFD013433B60002333730323B3758DF815
:10AF100007300F4B8DF8061024EA02040622046065
:10AF20001B688DF8042001A89847BAE740F2B47472
:10AF3000C3F80048D3F80448D3F80478E4B244F0E6
:10AF40000404D1E7583400205C3400200070024033
:10AF50006034002038B50446094D4FF0FF324FF001
:10AF6000FF33284602F016FF2046FFF77BFF2846F6
:10AF700002F0DCFE034B8022C3F8042138BD00BF81
:10AF80005402002000E100E0F8B54FF0FF324FF02E
:10AF9000FF332B4802F0FEFE2A4B8022C3F88421A7
:10AFA0002720FEF77FFA98B1274E284B34681B689C
:10AFB000240C24041C43012764BB254D40F2FF13DD
:10AFC00033602720C5F80445FEF758FAC5F800435A
:10AFD000204A13788BB11E4B0021C3F808110121C0
:10AFE000C3F80026C3F804165960D3F808110029E5
:10AFF000FBD00021C3F808111170154B0022C3F8D3
:10B000000025FFF78BFA0E4802F090FE124B01224A
:10B010001A70F8BD94FAA4F5B5FA85F50F2D2846F7
:10B02000C6BFA5F11000C0B240F08000030701D4F4
:10B03000FFF718FF07FA05F524EA0504BCE700BF8F
:10B040005402002000E100E05C340020583400206D
:10B0500000700240903700209437002010B504465D
:10B060004FF0FF324FF0FF33114802F093FE2046BD
:10B07000FFF7F8FE04F00F02012393400D4A14F08D
:10B08000800F14BFD2F81015D2F814156FEA03031D
:10B0900015BF0B400B40C2F81035C2F814350448F8
:10B0A00002F044FE044B8022C3F8042110BD00BF0F
:10B0B000540200200070024000E100E070B5044638
:10B0C000FFF786FB68B904F00F02012514F0800F2A
:10B0D000144B05FA02F205D0D3F810150A43C3F851
:10B0E000102570BDD3F814150A43C3F81425631E48
:10B0F000062BF6D8EFF31186202383F31288BFF3D3
:10B100006F8F2046FFF788FE204605F0A0FA064A1A
:10B110001368854023EA0503136086F31188BFF3A3
:10B120006F8FDEE70070024058340020030610B530
:10B13000044605D4FFF712FE10B12046FFF76CFE5F
:10B14000014BC3F8184510BD00700240084B70B5A4
:10B15000C31A0D4607499B1004465943064840222E
:10B1600005F0A1FA2B4601462046BDE8704018477D
:10B1700078340020B76DDBB60816030073B50C4CAD
:10B180000C4A4023041B00930D460B460A49A410A9
:10B1900061430646094805F0B1FA011E05DA30465A
:10B1A0002B4602B0BDE87040184702B070BD00BF2A
:10B1B0007834002065070300B76DDBB6081603007E
:10B1C00010B5EFF31184202383F31288BFF36F8F40
:10B1D000074A136823F00201DB07116002D4012043
:10B1E00005F053FC84F31188BFF36F8F10BD00BFCF
:10B1F000C8340020002270B5012104461046FEF735
:10B200005FF90F4801F060FA0E4B984215D101F03A
:10B210006BFA26690C49304604F05BFD00280BDB15
:10B22000012535642469084904F11C0004F051FD2E
:10B23000002801DBE564002070BD6FF00400FBE72F
:10B2400045B302000000AD0B5C1A03001FB50022DD
:10B250000123CDE90223094ACDF800D06B46CDF891
:10B2600004D005F078FA002805DB4FF48042002373
:10B27000684602F08FFD05B05DF804FB830703000C
:10B2800030B4104B0C2202FB003301460020D3E9FE
:10B290000E529863EFF31180202484F31288BFF3D9
:10B2A0006F8F1C6C04F0C00444F002041C6480F333
:10B2B0001188BFF36F8F1DB12B46034830BC184770
:10B2C00030BC7047783400200816030010B4EFF348
:10B2D0001182202383F31288BFF36F8F1748016810
:10B2E00041F002040460C80707D482F31188BFF359
:10B2F0006F8F012010BC01F00FBA4FF08041D1F8E0
:10B300000C04D1F80C14C907EFD5EFF3118083F3C7
:10B310001288BFF36F8F0A490B6C03F0C00343F030
:10B3200002030B6480F31188BFF36F8F82F31188DF
:10B33000BFF36F8F002010BCFFF7A2BFC8340020FE
:10B340007834002010B1012804D07047034B1B6CE7
:10B350005B0701D1FFF794BF704700BF783400202E
:10B36000024AC3B21C2003FB00207047783400203F
:10B370002DE9F0413849BFF35B8F0746012251E8C0
:10B38000003F41E800200028F9D1BFF35B8F33B9BB
:10B39000324933484B60CB608A6004F0ADFC7B1EC1
:10B3A000012B2BD8012F07D14FF08043D3F81C3449
:10B3B00003F00303012B21D005F04FFE0546F8B939
:10B3C000284B1B78E3B14FF080430222C3F80823D7
:10B3D0000646DFF894804FF08044D4F81824D4F85F
:10B3E0001834D20315D503F00303012B01D0012F2C
:10B3F0000FD155B386F31188BFF36F8FBDE8F0818D
:10B40000EFF31186202383F31288BFF36F8F01259A
:10B41000DFE7ADB1304605F09CF8D4F81835002BC5
:10B42000DBD1D4F80421002AD7D0C4F80431D4F8F1
:10B4300004310123C4F81835C8F88031A360CCE783
:10B440000021212005F0C1FEE7E74FF080430222F2
:10B45000C3F80423D2E700BF743400206434002012
:10B46000943400209837002000E100E008B5074838
:10B4700005F058FC38B10648FEF726FA0448FBF7F9
:10B4800027FD002008BD6FF01200FBE74416030003
:10B4900095B402000A2838B5074D044604D1AB68BC
:10B4A0000D215B6828469847AB6803485B68E1B2AA
:10B4B0009847204638BD00BF4416030008B5044A2B
:10B4C0000448022105F087F96FF0850008BD00BF30
:10B4D000322303002C190300F0B585B04668F36CE5
:10B4E00004464FF4004240F2E7300021C3FB020162
:10B4F00051EAC33300AF2FD000234FF47A72FAF72A
:10B50000FFFD6FF00103181A4FF0FF3363EB0101E9
:10B5100005F0D8F9636820461B6B9847054600BBC9
:10B52000B36B204698476C4688B06A46814BC2E9A7
:10B5300005304FF4007393837F4B42F8103F7F48F0
:10B540002B464FF4E251FCF78DF86FF01505A54638
:10B5500028461437BD46F0BD6FF001004FF0FF31B3
:10B56000D6E7B36A8BB106F1280005F079F9051E1C
:10B57000EEDBB06A05F0D6FB38B9714A6F4801219D
:10B5800005F029F96FF01205E2E7336A5BB106F1C5
:10B59000200005F065F9051EDADB306A05F0C2FB14
:10B5A00008B9684AEAE765682369A4223A7195F800
:10B5B0004820002A0BBFA621A7210222042279716C
:10B5C0001A70AB6A4BB1012105F1280005F066F94C
:10B5D0004FF42470002105F075F92B6A8BB12120FE
:10B5E000002105F1200605F06DF90121304605F036
:10B5F00055F92120002105F065F90021304605F0BC
:10B600004DF9204605F060F938B14F4A4B48012109
:10B6100005F0E1F86FF004059AE748F2D5023A81A7
:10B620006368D922BA7293F84420FA72DB223A7323
:10B6300093F84930002B0CBF202334237B73062260
:10B64000012307F10801204605F0A2F80028DCD10B
:10B6500063684DF240323A8193F84220BA72DA229E
:10B66000FA7293F84720002A0CBF122202223A7382
:10B67000A8227A7393F84330BB730722012307F1A2
:10B680000801204605F084F80028BED1626892F8CF
:10B690004530603B3B7292F84630002B0CBFC02314
:10B6A000C8237B720222012307F10801204605F01E
:10B6B0006FF80028A9D195F849302BBB636893F83F
:10B6C0004A30002B15BF8B231423AD228D227B72B1
:10B6D00033233A72BB720322012307F1080120468B
:10B6E00005F056F8002890D1636843F2AD023A8124
:10B6F00093F8503043B10123022207F1080120469C
:10B7000005F046F8002880D101230222391D204689
:10B7100005F03EF800287FF478AF8021204605F040
:10B720003DF8054600287FF470AF204605F0E5F8A7
:10B730000EE700BF4B230300030000012C19030098
:10B7400064230300812303009D2303002DE9F04FB0
:10B7500085B0D0F804A006460C461889998888421E
:10B7600000AF91461D460AD25C4A5D48012105F0B2
:10B7700032F84FF0FF301437BD46BDE8F08FB3F814
:10B7800006C01B6801FB0CF84FEAE808984528BF83
:10B790009846BB6B13B1B8F1000F01D1514AE4E7F1
:10B7A000884201D9504AE0E712F0070301D04F4A1E
:10B7B000DBE7EB468EB06A46DFF834E1C2F814E00E
:10B7C000DFF830E1C2F83080C2E90A1C0921C2E981
:10B7D00006E4C2E9089042F8101F4FF49241404835
:10B7E0007B60FBF73FFF9AF84A1072687B68DD4682
:10B7F000E4B2C9F3C70B00294AD092F84020D7F829
:10B800003890144404F00F02C4F3031444F01004FD
:10B810007C723A721C46EA88E3B2B3EBD20F01D3D2
:10B820000020A8E75B4463F04F03EA468AB0BB728E
:10B830006A46314B5361314B9361314BD36140F2D6
:10B84000013313842F4B42F8103F2F49244807F14E
:10B850000803FBF707FF0123D546032207F1080180
:10B86000304604F095FF0346002882D1AA88494655
:10B87000304604F08DFF00287FF47BAFAB889944FD
:10B88000BB6B4344994504F10104C4D91F4A6CE7DA
:10B8900092F84020EB88A98887F80EB020203881E4
:10B8A0002120B8724B441019013A1444DB102222B3
:10B8B0000C447A73013B0822F872FB733C7301233A
:10B8C000B918304604F064FF034608B1104A4CE74B
:10B8D000B96B4246304604F05BFF4CE7BA230300E5
:10B8E0002C190300D6230300F623030007240300CA
:10B8F0001A240300A7240300542403009224030005
:10B900005B240300040000010025300063240300D1
:10B910007A240300F0B54068057B01F01F0444EA77
:10B920004514056987B0002D64D0B2F5001F00F101
:10B93000100506D12146284605F027F9002007B05A
:10B94000F0BD01AE0027B2F5800F0197776039D1C5
:10B95000B3F1007F14BF052304238DF804300023C6
:10B96000CDE904630393836823FA01F111F0010127
:10B970001AD1B2F1A07F17D104F01F03620903F5B9
:10B98000E0732AD0012A3BD11F4A52F82330DB074B
:10B990000AD40DF1030632462146284601F09AF9F1
:10B9A0001A4B98421CD0029603AA2146284601F061
:10B9B00053F8174B984220D101222146284601F026
:10B9C000EDF9BBE7B3F1C06F05D0B3F1007F14BF51
:10B9D00001230223C1E70323BFE74FF0A042D4E7CE
:10B9E0003146284601F0D4F9094B9842DBD06FF07C
:10B9F0000B00A4E76FF08500A1E76FF015009EE74C
:10BA000051F82330FFDE00BF000300500400AD0BEF
:10BA10000000AD0B38B545682B69B3B11035284629
:10BA200001F0A6F9044680B90146284601F06CF9F8
:10BA3000084B98420BD108492246284601F044F9A8
:10BA4000224605210620FDF73BFD002038BD6FF0A2
:10BA50000400FBE70000AD0B5DBA0200420970B5BF
:10BA6000034602D0012A17D070BD0D4E32695168CD
:10BA70000029F9D003F01F0301250C689D4000291F
:10BA8000F2D08A682A4002D04B68304698472CB1E1
:10BA9000236821461C46F2E7024EE7E72346F8E713
:10BAA000301603001C1603002DE9F043466840F2EF
:10BAB0000635D006337B87B002EA050554BFC2F3D2
:10BAC0004010032001F01F07B5F5837F144647EAB5
:10BAD00043178DF8030045D00FD8062D18D007D88E
